:020000040800F2
:1000000000500020551A000851030008530300084F
:1000100055030008570300085903000800000000BA
:10002000000000000000000000000000B10E000809
:100030005B03000800000000510F00085D0300088A
:100040009D1A00089D1A00089D1A00089D1A0008B4
:100050009D1A00089D1A00089D1A00089D1A0008A4
:100060009D1A00089D1A00089D1A00089D1A000894
:100070009D1A00089D1A00089D1A00089D1A000884
:100080009D1A00089D1A00089D1A00089D1A000874
:100090009D1A00089D1A00089D1A00089D1A000864
:1000A0009D1A00089D1A00089D1A00089D1A000854
:1000B0009D1A00089D1A00089D1A00089D1A000844
:1000C0009D1A00089D1A00089D1A00089D1A000834
:1000D0009D1A00089D1A00089D1A00089D1A000824
:1000E0009D1A00089D1A00089D1A000800000000D3
:1000F0000000000000000000000000000000000000
:0C01000000000000000000005FF808F1A3
:1001100010B5054C237833B9044B13B10448AFF341
:1001200000800123237010BD3C040020000000006B
:100130006C1C000808B5034B1BB103490348AFF31F
:10014000008008BD00000000400400206C1C000876
:1001500008B5012000F01AFEFBE7000008B50B4CC3
:1001600001220221204600F0BFFA4FF4FA7000F09D
:100170000DFE00220221204600F0B6FA4FF4FA707C
:1001800000F004FE012000F001FEE8E70008014055
:10019000034B0360034B0B6080231360704700BF69
:1001A000600600206004002010B58EB0124C0DF1E6
:1001B0001C0CA646BEE80F00ACE80F009EE8070046
:1001C0008CE80700002107A800F0ABFD0B4B18607E
:1001D000EE4604F11C0CBCE80F00AEE80F009CE8F2
:1001E00007008EE807000021684600F09AFD044BE6
:1001F00018600EB010BD00BF841C00085804002019
:100200005C04002010B588B0002304930593069386
:10021000079303F1804303F504339A6942F0100217
:100220009A619A6902F010020192019A9A6942F069
:1002300020029A619A6902F020020292029A9A6957
:1002400042F004029A619B6903F004030393039B49
:10025000094C01220221204600F046FA02230493B1
:100260000123059306930323079304A9204600F076
:1002700029F908B010BD00BF0008014072B6FEE7C2
:1002800000B591B02822002106A801F02DFC002322
:1002900001930293039304930593012206924FF472
:1002A000803307930A9202220D920E934FF4E013CB
:1002B0000F9306A800F034FA80B90F2301930221AE
:1002C0000291002303934FF480620492059301A8E6
:1002D00000F066FC20B911B05DF804FBFFF7CEFF1B
:1002E000FFF7CCFF08B500F06BF8FFF7C9FFFFF789
:1002F00089FFFFF759FF00F00FFDFEE700B583B05F
:10030000114B9A6942F001029A619A6902F0010266
:100310000092009ADA6942F08052DA61DB6903F0F8
:1003200080530193019B00220F216FF0010000F028
:100330007DF8064A536823F0E06343F0007353608E
:1003400003B05DF804FB00BF001002400000014054
:10035000FEE7FEE7FEE7FEE7FEE7704708B500F0C0
:1003600041F801F067FB012800D108BD00F012FE42
:10037000FBE7704710B504460E4B18784FF47A73BC
:10038000B3FBF0F30C4A1068B0FBF3F000F086F812
:1003900068B90F2C01D901200AE0002221464FF054
:1003A000FF3000F043F8054B1C60002000E0012006
:1003B00010BD00BF04000020000000200800002045
:1003C00008B5074A136843F010031360032000F0D8
:1003D0001BF80F20FFF7CEFFFFF790FF002008BDAE
:1003E00000200240034A1168034B1B780B44136042
:1003F000704700BFB406002004000020014B1868BD
:10040000704700BFB4060020074AD36823F4E063B6
:100410001B041B0C000200F4E060034343F0BF63C5
:1004200043F40033D360704700ED00E000B5194B92
:10043000DB68C3F30223C3F1070CBCF1040F28BF30
:100440004FF0040C03F1040EBEF1060F18D9033B64
:100450004FF0FF3E0EFA0CFC21EA0C0199400EFA17
:1004600003F322EA0303194300280BDB0901C9B295
:1004700000F1604000F5614080F800135DF804FB76
:100480000023E5E700F00F000901C9B2024B19543F
:10049000F4E700BF00ED00E014ED00E00138B0F13A
:1004A000807F0BD24FF0E0235861054AF02182F89B
:1004B00023100020986107221A61704701207047BD
:1004C00000ED00E070B582B00024A446A6E0804DA7
:1004D000AA4210D007D97F4DAA420CD005F580352D
:1004E000AA4208D013E0A5F58015AA4203D005F56D
:1004F0007025AA4207D18A68002A58D0012A51D013
:100500004361082403E0A5F58015AA42F3D0BEF1AB
:10051000FF0F4ED80646BEF1FF0F4CD84FEA8C02B3
:1005200033680F25954023EA050304FA02F21343CA
:1005300033604B6813F0805F6ED0674B9A6942F06E
:1005400001029A619B6903F001030193019B4FEA49
:100550009C02951C614B53F825600CF003039D0031
:100560000F23AB4026EA03065D4B984229D003F5E2
:100570008063984200F08E8003F58063984200F01B
:100580008B8003F58063984219D004231AE0CC686D
:10059000BDE7CC680434BAE7CC680834B7E7CC6868
:1005A0000C34B4E703610824B1E70024AFE7042466
:1005B000ADE7061DAFE7ACF108029200B0E70323F8
:1005C00000E00023AB4033430232444D45F8223073
:1005D0004B6813F4803F61D0424A136843EA0E032C
:1005E00013604B6813F4003F5ED03E4A536843EA01
:1005F0000E0353604B6813F4801F5BD0394A936835
:1006000043EA0E0393604B6813F4001F58D0354A39
:10061000D36843EA0E03D3600CF1010C0A6832FA86
:100620000CF353D0012303FA0CF302EA030E33EA6E
:100630000202F1D14A68122A3FF649AF122A3FF668
:1006400066AF01A555F822F0F70400088F050008F1
:1006500099050008AB0500080F0500080F05000804
:100660000F0500080F0500080F0500080F0500081A
:100670000F0500080F0500080F0500080F0500080A
:100680000F0500080F0500080F0500089305000876
:100690009F050008012395E7022393E7114A136899
:1006A00023EA0E0313609CE70E4A536823EA0E0305
:1006B00053609FE70B4A936823EA0E039360A2E717
:1006C000084AD36823EA0E03D360A5E702B070BDE1
:1006D0000000221000003110001002400000014014
:1006E00000080140000401400AB10161704709049B
:1006F0000161704782B0084B1B68084AA2FB0323C4
:100700005B0A00FB03F3019300BF019B5A1E019299
:10071000002BF9D102B0704700000020D34D6210C9
:10072000002800F0F18170B582B00446036813F030
:10073000010F2CD0994B5B6803F00C03042B1DD0E8
:10074000964B5B6803F00C03082B12D06368B3F57B
:10075000803F41D0002B55D103F1804303F5043392
:100760001A6822F480321A601A6822F480221A6011
:1007700037E08A4B5B6813F4803FE7D0874B1B68F8
:1007800013F4003F03D06368002B00F0BF8123689F
:1007900013F0020F75D0814B5B6813F00C0F5FD024
:1007A0007E4B5B6803F00C03082B54D02369002BAD
:1007B00000F08A807A4B01221A60FFF71FFE05467F
:1007C000764B1B6813F0020F75D1FFF717FE401B25
:1007D0000228F5D903209EE1704A136843F4803360
:1007E0001360636843B3FFF709FE05466B4B1B6854
:1007F00013F4003FCBD1FFF701FE401B6428F5D96D
:10080000032088E1B3F5A02F09D0644B1A6822F4C5
:1008100080321A601A6822F480221A60E1E703F13C
:100820008043A3F53C331A6842F480221A601A68A8
:1008300042F480321A60D4E7FFF7E0FD0546574BDB
:100840001B6813F4003FA2D0FFF7D8FD401B6428BB
:10085000F5D903205FE1514B5B6813F4803FA5D1CC
:100860004E4B1B6813F0020F03D02369012B40F09D
:100870004F814A4A136823F0F803616943EAC103D0
:100880001360236813F0080F33D0A369002B5CD0EA
:10089000434B0122C3F88024FFF7B0FD05463F4BD0
:1008A0005B6A13F0020F21D1FFF7A8FD401B02285D
:1008B000F5D903202FE1394A136823F0F803616961
:1008C00043EAC1031360DCE7354B00221A60FFF7EF
:1008D00095FD0546314B1B6813F0020FD1D0FFF791
:1008E0008DFD401B0228F5D9032014E10120FFF7FC
:1008F00001FF236813F0040F00F09680274BDB699B
:1009000013F0805F34D1254BDA6942F08052DA610E
:10091000DB6903F080530193019B0125214B1B6888
:1009200013F4807F26D0E368012B3DD0002B53D1F8
:1009300003F1804303F504331A6A22F001021A62BC
:100940001A6A22F004021A6233E0154B0022C3F83F
:100950008024FFF753FD0546104B5B6A13F0020F2E
:10096000C7D0FFF74BFD401B0228F5D90320D2E08A
:100970000025D3E70B4A136843F480731360FFF735
:100980003DFD0646074B1B6813F4807FCBD1FFF774
:1009900035FD801B6428F5D90320BCE0001002401F
:1009A00000004242007000405F4A136A43F00103B6
:1009B0001362E36833B3FFF721FD06465A4B1B6A07
:1009C00013F0020F2FD1FFF719FD801B41F288337E
:1009D0009842F3D903209EE0052B09D0524B1A6AA6
:1009E00022F001021A621A6A22F004021A62E0E797
:1009F0004D4B1A6A42F004021A621A6A42F001026E
:100A00001A62D6E7FFF7FAFC0646474B1B6A13F05B
:100A1000020F08D0FFF7F2FC801B41F288339842A6
:100A2000F3D9032077E0E5B9E369002B72D03E4AA1
:100A3000526802F00C02082A56D0022B17D03B4B0A
:100A400000221A66FFF7DAFC0446374B1B6813F0E6
:100A5000007F47D0FFF7D2FC001B0228F5D9032006
:100A600059E0314AD36923F08053D361DCE72F4B3F
:100A700000221A66FFF7C2FC05462B4B1B6813F0D9
:100A8000007F06D0FFF7BAFC401B0228F5D90320EF
:100A900041E0236AB3F5803F1AD023494B6823F421
:100AA0007413226A606A024313434B601F4B012296
:100AB0001A66FFF7A3FC04461B4B1B6813F0007F6C
:100AC0000ED1FFF79BFC001B0228F5D9032022E082
:100AD000154A536823F40033A1680B435360DCE7E5
:100AE000002018E0002016E0012B16D00E4B5B68AA
:100AF00003F48031226A914211D103F47013626AC7
:100B000093420ED1002006E001207047012002E050
:100B1000012000E0002002B070BD0120FBE70120B1
:100B2000F9E70120F7E700BF001002400000424251
:100B300086B0174B0FCB0DF1180C0CE90F0040F2EB
:100B40000123ADF80430134B5B6803F00C02082A54
:100B500002D0114806B07047C3F3834218326A448A
:100B600012F8100C13F4803F0DD00A4B5B68C3F3EE
:100B7000404318336B4413F8143C074A02FB00F05F
:100B8000B0FBF3F0E6E7054B03FB00F0E2E700BF44
:100B9000E01C00080010024000127A0000093D002D
:100BA000002800F0A08070B50D460446524B1B682B
:100BB00003F007038B420BD24F4A136823F007035D
:100BC0000B431360136803F007038B4240F08D80E2
:100BD000236813F0020F17D013F0040F04D0474A14
:100BE000536843F4E0635360236813F0080F04D0A4
:100BF000424A536843F460535360404A536823F0B9
:100C0000F003A1680B435360236813F0010F31D048
:100C10006368012B20D0022B25D0384A126812F0CD
:100C2000020F64D035494A6822F0030213434B6037
:100C3000FFF7E4FB0646314B5B6803F00C03626888
:100C4000B3EB820F16D0FFF7D9FB801B41F288333C
:100C50009842F0D9032045E0284A126812F4003F78
:100C6000E0D101203EE0254A126812F0007FD9D180
:100C7000012037E0204B1B6803F00703AB420AD981
:100C80001D4A136823F007032B431360136803F016
:100C90000703AB422DD1236813F0040F06D0174A87
:100CA000536823F4E063E1680B435360236813F057
:100CB000080F07D0114A536823F46053216943EAAF
:100CC000C1035360FFF734FF0C4B5B68C3F303139E
:100CD0000B4AD35CD8400B4B18600B4B1868FFF7DE
:100CE00049FB002070BD012070470120FAE7012078
:100CF000F8E70120F6E700BF0020024000100240A4
:100D0000D01C00080000002008000020842801D02A
:100D1000033070470020704708B500F0CFFC00207A
:100D200008BD2DE9F04387B004460F464569BDB1C3
:100D30008669AEB1D0F80480D0F80090B0F9080010
:100D4000FFF7E4FF0296019500903B462269494671
:100D5000404600F045FC0590059807B0BDE8F083DB
:100D600065682668D4F81080B4F90800FFF7CEFF54
:100D700005AB019300903B461FFA88F231462846A6
:100D800000F068FC0128E7D00020E6E708B500B9CC
:100D9000012000F0DDFD002008BD00F108034360E4
:100DA0004FF0FF328260C36003610023036070472D
:100DB00000230361704743684B609A688A60516002
:100DC00099600861036801330360704730B40D68AF
:100DD000B5F1FF3F11D000F108031C465B681A68AB
:100DE000AA42FAD963684B6099608C6061600861BF
:100DF00003680133036030BC70470469F2E703699C
:100E0000416882688A60416851605A68824206D0AF
:100E1000002202611A68013A1A60186870478268F5
:100E20005A60F5E782B0002301930D4B1B68B3F1C4
:100E3000FF3F08D04FF0500383F31188BFF36F8F4B
:100E4000BFF34F8FFEE74FF0500383F31188BFF3DA
:100E50006F8FBFF34F8F019B002BFCD002B0704708
:100E60000C00002006480068006880F3088862B61D
:100E700061B6BFF34F8FBFF36F8F00DF00BF00007D
:100E800008ED00E04FF0807340F8043C21F00101D0
:100E900040F8081C034B40F80C3C40F8202C40382C
:100EA000704700BF250E0008000000000000000091
:100EB000074B19680868B0E8F00F80F30988BFF3A2
:100EC0006F8F4FF0000080F311884EF00D0E7047C9
:100ED000D81200204FF0500383F31188BFF36F8FB7
:100EE000BFF34F8F0B4A136801331360012B00D0FF
:100EF00070474FF0E023D3F8043D13F0FF0FF7D015
:100F00004FF0500383F31188BFF36F8FBFF34F8F00
:100F1000FEE700BF0C000020094B1B6843B94FF0EF
:100F2000500383F31188BFF36F8FBFF34F8FFEE73A
:100F3000013B034A13600BB983F31188704700BF6C
:100F40000C00002000000000000000000000000075
:100F5000EFF30980BFF36F8F0D4B1A6820E9F00F94
:100F600010602DE908404FF0500080F3118800F028
:100F700015FD4FF0000080F31188BDE808401968A6
:100F80000868B0E8F00F80F30988BFF36F8F7047EF
:100F9000D812002008B54FF0500383F31188BFF337
:100FA0006F8FBFF34F8F00F0CBFB28B14FF0E023E2
:100FB0004FF08052C3F8042D002383F3118808BD3D
:100FC0004FF0E022002313619361054B1B68054934
:100FD000A1FB03139B09013B536107231361704776
:100FE00000000020D34D621010B582B02A4B1A7851
:100FF000D2B20192FF221A701B78DBB28DF8033057
:101000009DF8033003F05003244A1370244B072249
:101010001A6009E0224A1368013B13609DF803300F
:101020005B00DBB28DF803309DF8033013F0800FC6
:10103000F0D11B4B1B68032B08D04FF0500383F3F8
:101040001188BFF36F8FBFF34F8FFEE71B02144A67
:10105000136003F4E0631360019BDBB20E4A13706C
:101060004FF0E023D3F8202D42F47002C3F8202D76
:10107000D3F8202D42F07042C3F8202DFFF7A0FFD7
:101080000024084B1C60FFF7EDFE00F087FCFFF723
:10109000C9FE204602B010BD00E400E0B806002002
:1010A000BC0600200C000020124A12F0070F1ED0D0
:1010B000D11D21F00701C1F5406313440A460E48D3
:1010C0000260002141601344083B23F007030B48F2
:1010D000036059601960991A51601360084B1960D8
:1010E000084B1960084B4FF000421A6070474FF4EC
:1010F0004063E4E7C4060020D0120020C0060020B0
:10110000CC120020C8120020C4120020154B1A4631
:101110001B688342FBD3516802EB010C844509D064
:10112000416800EB010C634509D00360904218D080
:10113000106070474068014451601046F0E710B4F9
:10114000094C2468A3420AD05B68194441601368C3
:101150001B680360904200D0106010BC70470460B0
:10116000F8E77047D0120020C006002070B5054691
:1011700000F0DEFA344B1B68A3B1344B1B681D42F0
:101180004AD135B1083515F0070F02D025F0070513
:101190000835002D42D02E4B1B68AB424DD32D4A53
:1011A000146804E0FFF780FFE7E722461C46636807
:1011B000AB4202D22368002BF7D1234B1B68A3421A
:1011C0003DD0166808362368136063685B1B102BDC
:1011D00010D9601910F0070F08D04FF0500383F3B7
:1011E0001188BFF36F8FBFF34F8FFEE743606560D9
:1011F000FFF78CFF626816490B689B1A0B60164953
:1012000009688B4201D214490B60104B1B681343D1
:1012100063600023236002E0002600E0002600F067
:101220001BFB16F0070F0CD04FF0500383F311880F
:10123000BFF36F8FBFF34F8FFEE70026EFE7002667
:10124000EDE7304670BD00BFC0060020C41200208C
:10125000C8120020D0120020CC12002080B338B574
:101260000446A0F1080550F8043C164A12681342DF
:1012700008D14FF0500383F31188BFF36F8FBFF392
:101280004F8FFEE750F8081C41B14FF0500383F335
:101290001188BFF36F8FBFF34F8FFEE723EA02037E
:1012A00040F8043C00F044FA54F8041C064A136861
:1012B0000B4413602846FFF729FF00F0CDFA38BD34
:1012C000704700BFC4120020C8120020084B1B68E2
:1012D0001B6823B9074B4FF0FF321A607047044B6D
:1012E0001B68DB68DB685A68024B1A60704700BFF6
:1012F000DC120020B41300202DE9F0470746984681
:10130000089DDDF824900A9C266B02F18042013A88
:1013100006EB820626F007064FF0000CBCF10F0F1B
:101320000BD811F80C2004EB0C0383F8342011F8CF
:101330000C3013B10CF1010CF0E7002384F84330BA
:10134000062D00D90625E56265644FF0000AC4F851
:1013500048A0201DFFF72CFD04F11800FFF728FD21
:101360002461C5F10705A5616462C4F84CA084F846
:1013700050A0424639463046FFF784FD2060B9F15F
:10138000000F01D0C9F80040BDE8F08738B500244F
:1013900007E004EB840293000E481844FFF7FDFCBD
:1013A0000134062CF5D90C4D2846FFF7F6FC0B4C02
:1013B0002046FFF7F2FC0A48FFF7EFFC0948FFF769
:1013C000ECFC0948FFF7E9FC084B1D60084B1C606A
:1013D00038BD00BFE4120020881300209C130020B9
:1013E000BC130020E8130020D4130020DC120020DE
:1013F000E012002010B50446FFF76CFD214A136887
:1014000001331360204B1B685BB1204B1B686BB929
:101410001D4B1B68DA6AE36A9A4207D81A4B1C60B4
:1014200004E0194B1C601368012B28D0184A13687C
:1014300001331360E06A01238340164A11680B43AD
:10144000136000EB8000211D134B03EB8000FFF7BE
:10145000B2FCFFF761FD0D4B1B687BB10A4B1B68AB
:10146000DA6AE36A9A4209D24FF0E0234FF08052E1
:10147000C3F8042DBFF34F8FBFF36F8F10BDFFF77D
:1014800085FFD3E770130020D8120020D01300206E
:101490008013002084130020E412002010B50446BD
:1014A00090F8513063B1012B11D0022B0ED04FF0C8
:1014B000500383F31188BFF36F8FBFF34F8FFEE7A5
:1014C000006BFFF7CBFE2046FFF7C8FE10BDFFF70D
:1014D000C5FEFBE70F4B1B68D3B110B5FFF7FAFC55
:1014E0000D4BDB68DC68201DFFF789FC0B4A136895
:1014F000013B1360074A1368013B1360FFF70CFDC3
:101500002046FFF7CBFF034B1B68002BE6D110BD35
:10151000704700BF74130020E813002070130020F0
:1015200008B5FFF7D7FF074B1B68012BF9D94FF020
:10153000E0234FF08052C3F8042DBFF34F8FBFF369
:101540006F8FEEE7E412002070B504460D461D4B88
:101550001E681D4B18680430FFF751FC50B91A4B38
:101560001B68DA6A012303FA02F218490B6823EABE
:1015700002030B60B4F1FF3F0DD03444124B1B68E3
:101580005C60A64210D9124B18680F4B19680431E1
:10159000FFF71CFC70BD002DEFD00B4B1968043118
:1015A0000C48FFF708FCF5E70B4B1868064B196869
:1015B0000431FFF70BFC094B1B68A342EAD9074B28
:1015C0001C60E7E7FC130020D812002084130020E1
:1015D000E0120020D4130020DC120020B4130020FD
:1015E00030B587B00B9C7CB10C9DB5B154250495EA
:1015F000049D542D1AD04FF0500383F31188BFF38C
:101600006F8FBFF34F8FFEE74FF0500383F31188C6
:10161000BFF36F8FBFF34F8FFEE74FF0500383F39D
:101620001188BFF36F8FBFF34F8FFEE70C9D2C63C4
:10163000022485F8514000240394029505AC0194DE
:101640000A9C0094FFF758FE0C98FFF7D3FE05980C
:1016500007B030BD2DE9F04385B0074688461446F3
:101660001E469000FFF782FD00B381465420FFF72D
:101670007DFD0546B0B1C0F83090E5B1002385F896
:101680005130039302950D9B01930C9B00933346BD
:10169000224641463846FFF72FFE2846FFF7AAFEAE
:1016A000012005E04846FFF7D9FDE6E74FF0FF309F
:1016B00005B0BDE8F0834FF0FF30F9E710B588B012
:1016C00000240594069407AA06A905A8FEF760FD64
:1016D000059B0293069B019300942346079A0E49AB
:1016E0000E48FFF77DFF0E4B186090B14FF050038E
:1016F00083F31188BFF36F8FBFF34F8F094B4FF008
:10170000FF321A60084B01221A60084B1C60FFF779
:101710006BFC08B010BD00BFF41C000821150008C8
:10172000B0130020B4130020D0130020FC130020BD
:10173000024A136801331360704700BF7C13002016
:10174000F8B53A4B1B68002B64D1394B1D68013545
:101750001D60C5B9374B1B681B6843B14FF0500380
:1017600083F31188BFF36F8FBFF34F8FFEE7314ACA
:101770001168314B186810601960304A13680133E2
:101780001360FFF7A3FD2E4B1B68AB4238D900272F
:101790002C4B1B68DB6A03EB83039A002A4B9B5894
:1017A000012B3CD901273AE00127224B1B681B681B
:1017B00043B3204B1B68DB68DC6863689D4226D31B
:1017C000261D3046FFF71BFBA36A1BB104F118006E
:1017D000FFF715FBE36A01229A401C49086802439F
:1017E0000A6003EB83039A00314617481044FFF761
:1017F000E2FAE26A134B1B68DB6A9A42D4D2D4E75E
:101800000027D2E70E4B4FF0FF321A60C0E70C4AB8
:101810001360BDE70E4A13680133136000270D4BB8
:101820001B6803B101273846F8BD00BF7C130020B8
:10183000FC130020DC120020E0120020B81300206E
:10184000B4130020D8120020E412002084130020DA
:10185000781300200014002038B5354B1B6843B9BD
:101860004FF0500383F31188BFF36F8FBFF34F8F97
:10187000FEE7FFF72FFB2E4B1A68013A1A601B6830
:10188000002B4FD12B4B1B680BB900244BE00024DD
:10189000294B1B681BB3284BDB68DC6804F118007C
:1018A000FFF7ADFA251D2846FFF7A9FAE06A0123E4
:1018B0008340224A11680B43136000EB80002946E5
:1018C0001F4B03EB8000FFF776FAE26A1D4B1B68A3
:1018D000DB6A9A42DCD31C4B01221A60D8E70CB1B8
:1018E000FFF7F4FC194B1C6884B9174B1C68D4B182
:1018F0004FF0E0234FF08052C3F8042DBFF34F8F19
:10190000BFF36F8F01240EE0013C07D0FFF718FFF3
:101910000028F9D00C4B01221A60F5E70B4B00228E
:101920001A60E2E70024FFF7F7FA204638BD00BF4F
:101930007C13002070130020BC13002084130020AF
:10194000E4120020D8120020001400207813002098
:1019500010B5A8B10446104B1B6843B14FF05003BB
:1019600083F31188BFF36F8FBFF34F8FFEE7FFF74D
:10197000DFFE00212046FFF7E7FDFFF76DFF48B9C6
:101980004FF0E0234FF08052C3F8042DBFF34F8F88
:10199000BFF36F8F10BD00BF7C130020204B1B686E
:1019A0001BB1204B01221A6070471E4B00221A60A7
:1019B0001D4B1B68B3FA83F3DBB2C3F11F0303EBC8
:1019C00083018A0019498A5842B94FF0500383F3C2
:1019D0001188BFF36F8FBFF34F8FFEE7134903EBFF
:1019E000830082000A4450684068506003EB830C17
:1019F0004FEA8C0208321144884209D003EB83037A
:101A00009A000A4B13445B68DA68094B1A60704706
:101A1000406862469100054A0A445060EEE700BF04
:101A20007C1300200014002084130020E412002006
:101A3000D8120020054B1B6833B1054B1B680BB156
:101A4000002070470220704701207047D01300200B
:101A50007C1300200C480D490D4A002302E0D458A5
:101A6000C4500433C4188C42F9D30A4A0A4C0023E8
:101A700001E013600432A242FBD3FEF77AFC00F0CF
:101A80000FF8FEF72FFC7047000000203C040020F8
:101A90000C1D00083C04002008140020FEE7000094
:101AA00070B50D4E0D4D761BB61006D0002455F8BE
:101AB000043B01349847A642F9D1094E094D00F084
:101AC000D5F8761BB61006D0002455F8043B013437
:101AD0009847A642F9D170BD001D0008001D0008FE
:101AE000081D0008001D0008830730B548D0541EAB
:101AF000002A3FD00346CAB201E0013C3AD303F8C2
:101B0000012B9D07F9D1032C2DD9CDB245EA05252E
:101B10000F2C45EA054536D9A4F1100222F00F0C2E
:101B200003F1200EE6444FEA121C03F1100242E9D1
:101B3000045542E9025510327245F8D10CF1010208
:101B400014F00C0F03EB021204F00F0C13D0ACF1E5
:101B5000040323F003030433134442F8045B934269
:101B6000FBD10CF003042CB1CAB21C4403F8012BC6
:101B70009C42FBD130BD64461346002CF4D1F9E7FA
:101B800003461446BFE71A46A446E0E7024B13B1EA
:101B9000024800F005B8704700000000AD1B0008C7
:101BA000002301461A46184600F01AB838B5084B0B
:101BB000084D5B1B9C1007D0043B1D44013C55F8AD
:101BC00004399847002CF9D1BDE8384000F054B8EA
:101BD0000C1D0008081D0008704700BF704700BFBB
:101BE0002DE9F047DFF87CA00646DAF800009846B9
:101BF0000F469146FFF7F0FF1B4B1B68D3F8484197
:101C000024B365681F2D26DC5EB96B1C0235DAF83B
:101C10000000636044F82570FFF7E0FF0020BDE896
:101C2000F087012304EB8501C1F88890D4F888215E
:101C3000AB401A43022EC4F88821C1F80881E4D1D0
:101C4000D4F88C211343C4F88C31DEE703F5A67475
:101C5000C3F84841D5E7DAF80000FFF7BFFF4FF0BF
:101C6000FF30DCE738040020FC1C0008F8B500BF9A
:101C7000F8BC08BC9E467047F8B500BFF8BC08BC6D
:041C80009E467047C5
:101C8400BC1C000851010008000000000000000016
:101C9400800000000000000000000000C81C0008D4
:101CA4005D0100080000000000000000800000004A
:101CB400000000000000000064656661756C7454E7
:101CC40061736B006C65645461736B000000000009
:101CD40000000000010203040607080902030405CA
:101CE400060708090A0B0C0D0E0F10100000000067
:0C1CF40049444C45000000001000002096
:081D00008D1B000835010008ED
:041D080011010008BD
:101D0C000024F4000100000010000000AAAAAAAAF6
:101D1C0000000000FC02002064030020CC03002023
:101D2C0000000000000000000000000000000000A7
:101D3C000000000000000000000000000000000097
:101D4C000000000000000000000000000000000087
:101D5C000000000000000000000000000000000077
:101D6C000000000000000000000000000000000067
:101D7C000000000000000000000000000000000057
:101D8C000000000000000000000000000000000047
:101D9C000000000000000000000000000000000037
:101DAC000000000000000000000000000000000027
:101DBC000000000000000000010000000000000016
:101DCC000E33CDAB34126DE6ECDE05000B000000DB
:101DDC0000000000000000000000000000000000F7
:101DEC0000000000000000000000000000000000E7
:101DFC0000000000000000000000000000000000D7
:101E0C0000000000000000000000000000000000C6
:0C213C000000000000000000041400205F
:0400000508001A5580
:00000001FF
